{
  "_format": "hh-sol-artifact-1",
  "contractName": "GameVault",
  "sourceName": "contracts/GameVault.sol",
  "abi": [
    {
      "inputs": [
        {
          "internalType": "uint256",
          "name": "_expirationTimeInMinutes",
          "type": "uint256"
        }
      ],
      "stateMutability": "nonpayable",
      "type": "constructor"
    },
    {
      "anonymous": false,
      "inputs": [
        {
          "indexed": false,
          "internalType": "uint256",
          "name": "timestamp",
          "type": "uint256"
        }
      ],
      "name": "CouponExpired",
      "type": "event"
    },
    {
      "anonymous": false,
      "inputs": [
        {
          "indexed": true,
          "internalType": "address",
          "name": "previousOwner",
          "type": "address"
        },
        {
          "indexed": true,
          "internalType": "address",
          "name": "newOwner",
          "type": "address"
        }
      ],
      "name": "OwnershipTransferred",
      "type": "event"
    },
    {
      "inputs": [],
      "name": "apeToken",
      "outputs": [
        {
          "internalType": "contract IERC20Ape",
          "name": "",
          "type": "address"
        }
      ],
      "stateMutability": "view",
      "type": "function"
    },
    {
      "inputs": [
        {
          "internalType": "uint256",
          "name": "_amount",
          "type": "uint256"
        }
      ],
      "name": "approve",
      "outputs": [],
      "stateMutability": "nonpayable",
      "type": "function"
    },
    {
      "inputs": [],
      "name": "buyerAddress",
      "outputs": [
        {
          "internalType": "address",
          "name": "",
          "type": "address"
        }
      ],
      "stateMutability": "view",
      "type": "function"
    },
    {
      "inputs": [
        {
          "internalType": "bytes",
          "name": "",
          "type": "bytes"
        }
      ],
      "name": "checkUpkeep",
      "outputs": [
        {
          "internalType": "bool",
          "name": "upkeepNeeded",
          "type": "bool"
        },
        {
          "internalType": "bytes",
          "name": "",
          "type": "bytes"
        }
      ],
      "stateMutability": "view",
      "type": "function"
    },
    {
      "inputs": [],
      "name": "deployedTimestamp",
      "outputs": [
        {
          "internalType": "uint256",
          "name": "",
          "type": "uint256"
        }
      ],
      "stateMutability": "view",
      "type": "function"
    },
    {
      "inputs": [],
      "name": "getBalanceOfContract",
      "outputs": [
        {
          "internalType": "uint256",
          "name": "",
          "type": "uint256"
        }
      ],
      "stateMutability": "view",
      "type": "function"
    },
    {
      "inputs": [],
      "name": "getRedemptionKey",
      "outputs": [
        {
          "internalType": "string",
          "name": "",
          "type": "string"
        }
      ],
      "stateMutability": "view",
      "type": "function"
    },
    {
      "inputs": [
        {
          "internalType": "address",
          "name": "_buyer",
          "type": "address"
        },
        {
          "internalType": "string",
          "name": "_email",
          "type": "string"
        }
      ],
      "name": "giftCard",
      "outputs": [],
      "stateMutability": "nonpayable",
      "type": "function"
    },
    {
      "inputs": [],
      "name": "giftTokenAddress",
      "outputs": [
        {
          "internalType": "address",
          "name": "",
          "type": "address"
        }
      ],
      "stateMutability": "view",
      "type": "function"
    },
    {
      "inputs": [],
      "name": "owner",
      "outputs": [
        {
          "internalType": "address",
          "name": "",
          "type": "address"
        }
      ],
      "stateMutability": "view",
      "type": "function"
    },
    {
      "inputs": [
        {
          "internalType": "bytes",
          "name": "",
          "type": "bytes"
        }
      ],
      "name": "performUpkeep",
      "outputs": [],
      "stateMutability": "nonpayable",
      "type": "function"
    },
    {
      "inputs": [],
      "name": "poolFee",
      "outputs": [
        {
          "internalType": "uint24",
          "name": "",
          "type": "uint24"
        }
      ],
      "stateMutability": "view",
      "type": "function"
    },
    {
      "inputs": [],
      "name": "redeemer",
      "outputs": [
        {
          "internalType": "address payable",
          "name": "",
          "type": "address"
        }
      ],
      "stateMutability": "view",
      "type": "function"
    },
    {
      "inputs": [],
      "name": "renounceOwnership",
      "outputs": [],
      "stateMutability": "nonpayable",
      "type": "function"
    },
    {
      "inputs": [
        {
          "internalType": "address",
          "name": "newOwner",
          "type": "address"
        }
      ],
      "name": "transferOwnership",
      "outputs": [],
      "stateMutability": "nonpayable",
      "type": "function"
    },
    {
      "inputs": [],
      "name": "uniswapRouter",
      "outputs": [
        {
          "internalType": "contract UniswapRouter",
          "name": "",
          "type": "address"
        }
      ],
      "stateMutability": "view",
      "type": "function"
    },
    {
      "inputs": [],
      "name": "usdcToken",
      "outputs": [
        {
          "internalType": "contract IERC20Usdc",
          "name": "",
          "type": "address"
        }
      ],
      "stateMutability": "view",
      "type": "function"
    },
    {
      "inputs": [
        {
          "internalType": "string",
          "name": "_email",
          "type": "string"
        }
      ],
      "name": "withdraw",
      "outputs": [],
      "stateMutability": "nonpayable",
      "type": "function"
    }
  ],
  "bytecode": "0x60806040526000600a60006101000a81548160ff0219169083151502179055503480156200002c57600080fd5b5060405162001e1e38038062001e1e83398181016040528101906200005291906200028b565b62000072620000666200017f60201b60201c565b6200018760201b60201c565b73328507dc29c95c170b56a1b3a758eb7a9e73455c600160006101000a81548173ffffffffffffffffffffffffffffffffffffffff021916908373ffffffffffffffffffffffffffffffffffffffff1602179055507307865c6e87b9f70255377e024ace6630c1eaa37f600260006101000a81548173ffffffffffffffffffffffffffffffffffffffff021916908373ffffffffffffffffffffffffffffffffffffffff16021790555073e592427a0aece92de3edee1f18e0157c05861564600360006101000a81548173ffffffffffffffffffffffffffffffffffffffff021916908373ffffffffffffffffffffffffffffffffffffffff1602179055508060098190555050620002bd565b600033905090565b60008060009054906101000a900473ffffffffffffffffffffffffffffffffffffffff169050816000806101000a81548173ffffffffffffffffffffffffffffffffffffffff021916908373ffffffffffffffffffffffffffffffffffffffff1602179055508173ffffffffffffffffffffffffffffffffffffffff168173ffffffffffffffffffffffffffffffffffffffff167f8be0079c531659141344cd1fd0a4f28419497f9722a3daafe3b4186f6b6457e060405160405180910390a35050565b600080fd5b6000819050919050565b620002658162000250565b81146200027157600080fd5b50565b60008151905062000285816200025a565b92915050565b600060208284031215620002a457620002a36200024b565b5b6000620002b48482850162000274565b91505092915050565b611b5180620002cd6000396000f3fe608060405234801561001057600080fd5b50600436106101165760003560e01c8063569446c4116100a257806388f6e3d41161007157806388f6e3d41461029a5780638da5cb5b146102b8578063b759f954146102d6578063e6bbe424146102f2578063f2fde38b1461031057610116565b8063569446c4146102255780636e04ff0d14610241578063715018a614610272578063735de9f71461027c57610116565b80632ba29d38116100e95780632ba29d381461019357806331fb67c2146101b157806344834aca146101cd578063452fd65a146101eb5780634585e33b1461020957610116565b8063050f06b51461011b578063089fe6aa1461013957806311eac855146101575780632296888514610175575b600080fd5b61012361032c565b6040516101309190610f10565b60405180910390f35b610141610352565b60405161014e9190610f49565b60405180910390f35b61015f610358565b60405161016c9190610f85565b60405180910390f35b61017d61037e565b60405161018a9190610fb9565b60405180910390f35b61019b610421565b6040516101a89190610ff5565b60405180910390f35b6101cb60048036038101906101c6919061116a565b610447565b005b6101d561068e565b6040516101e291906111d4565b60405180910390f35b6101f36106b4565b6040516102009190611277565b60405180910390f35b610223600480360381019061021e91906112f9565b61074e565b005b61023f600480360381019061023a9190611372565b61079d565b005b61025b600480360381019061025691906112f9565b610886565b60405161026992919061143e565b60405180910390f35b61027a6108d0565b005b6102846108e4565b604051610291919061148f565b60405180910390f35b6102a261090a565b6040516102af91906111d4565b60405180910390f35b6102c0610930565b6040516102cd91906111d4565b60405180910390f35b6102f060048036038101906102eb91906114d6565b610959565b005b6102fa6109fd565b6040516103079190610fb9565b60405180910390f35b61032a60048036038101906103259190611503565b610a03565b005b600160009054906101000a900473ffffffffffffffffffffffffffffffffffffffff1681565b610bb881565b600260009054906101000a900473ffffffffffffffffffffffffffffffffffffffff1681565b6000600260009054906101000a900473ffffffffffffffffffffffffffffffffffffffff1673ffffffffffffffffffffffffffffffffffffffff166370a08231306040518263ffffffff1660e01b81526004016103db91906111d4565b602060405180830381865afa1580156103f8573d6000803e3d6000fd5b505050506040513d601f19601f8201168201806040525081019061041c9190611545565b905090565b600560009054906101000a900473ffffffffffffffffffffffffffffffffffffffff1681565b60001515600a60009054906101000a900460ff1615151461049d576040517f08c379a0000000000000000000000000000000000000000000000000000000008152600401610494906115be565b60405180910390fd5b60076040516020016104af91906116de565b60405160208183030381529060405280519060200120816040516020016104d69190611726565b604051602081830303815290604052805190602001201461052c576040517f08c379a000000000000000000000000000000000000000000000000000000000815260040161052390611789565b60405180910390fd5b6000600260009054906101000a900473ffffffffffffffffffffffffffffffffffffffff1673ffffffffffffffffffffffffffffffffffffffff166370a08231306040518263ffffffff1660e01b815260040161058991906111d4565b602060405180830381865afa1580156105a6573d6000803e3d6000fd5b505050506040513d601f19601f820116820180604052508101906105ca9190611545565b9050600260009054906101000a900473ffffffffffffffffffffffffffffffffffffffff1673ffffffffffffffffffffffffffffffffffffffff166323b872dd3033846040518463ffffffff1660e01b815260040161062b939291906117a9565b6020604051808303816000875af115801561064a573d6000803e3d6000fd5b505050506040513d601f19601f8201168201806040525081019061066e919061180c565b506001600a60006101000a81548160ff0219169083151502179055505050565b600460009054906101000a900473ffffffffffffffffffffffffffffffffffffffff1681565b60606106be610a87565b600780546106cb9061160d565b80601f01602080910402602001604051908101604052809291908181526020018280546106f79061160d565b80156107445780601f1061071957610100808354040283529160200191610744565b820191906000526020600020905b81548152906001019060200180831161072757829003601f168201915b5050505050905090565b603c60095461075d9190611868565b6008544261076b91906118c2565b11801561078b575060001515600a60009054906101000a900460ff161515145b1561079957610798610b05565b5b5050565b6107a5610a87565b600073ffffffffffffffffffffffffffffffffffffffff168273ffffffffffffffffffffffffffffffffffffffff1614156107df57600080fd5b6000815111610823576040517f08c379a000000000000000000000000000000000000000000000000000000000815260040161081a90611942565b60405180910390fd5b81600460006101000a81548173ffffffffffffffffffffffffffffffffffffffff021916908373ffffffffffffffffffffffffffffffffffffffff160217905550806007908051906020019061087a929190610dee565b50426008819055505050565b60006060603c6009546108999190611868565b600854426108a791906118c2565b1180156108c7575060001515600a60009054906101000a900460ff161515145b91509250929050565b6108d8610a87565b6108e26000610d22565b565b600360009054906101000a900473ffffffffffffffffffffffffffffffffffffffff1681565b600660009054906101000a900473ffffffffffffffffffffffffffffffffffffffff1681565b60008060009054906101000a900473ffffffffffffffffffffffffffffffffffffffff16905090565b600260009054906101000a900473ffffffffffffffffffffffffffffffffffffffff1673ffffffffffffffffffffffffffffffffffffffff1663095ea7b330836040518363ffffffff1660e01b81526004016109b6929190611962565b6020604051808303816000875af11580156109d5573d6000803e3d6000fd5b505050506040513d601f19601f820116820180604052508101906109f9919061180c565b5050565b60085481565b610a0b610a87565b600073ffffffffffffffffffffffffffffffffffffffff168173ffffffffffffffffffffffffffffffffffffffff161415610a7b576040517f08c379a0000000000000000000000000000000000000000000000000000000008152600401610a72906119fd565b60405180910390fd5b610a8481610d22565b50565b610a8f610de6565b73ffffffffffffffffffffffffffffffffffffffff16610aad610930565b73ffffffffffffffffffffffffffffffffffffffff1614610b03576040517f08c379a0000000000000000000000000000000000000000000000000000000008152600401610afa90611a69565b60405180910390fd5b565b60001515600a60009054906101000a900460ff16151514610b5b576040517f08c379a0000000000000000000000000000000000000000000000000000000008152600401610b5290611afb565b60405180910390fd5b6000600260009054906101000a900473ffffffffffffffffffffffffffffffffffffffff1673ffffffffffffffffffffffffffffffffffffffff166370a08231306040518263ffffffff1660e01b8152600401610bb891906111d4565b602060405180830381865afa158015610bd5573d6000803e3d6000fd5b505050506040513d601f19601f82011682018060405250810190610bf99190611545565b905060008111610c0857600080fd5b6001600a60006101000a81548160ff0219169083151502179055507ffaf5254514fb2d540ff0e9ca1c3486dccdbd54b8c63d2ce7c6b078db9314ebe542604051610c529190610fb9565b60405180910390a1600260009054906101000a900473ffffffffffffffffffffffffffffffffffffffff1673ffffffffffffffffffffffffffffffffffffffff166323b872dd30600460009054906101000a900473ffffffffffffffffffffffffffffffffffffffff16846040518463ffffffff1660e01b8152600401610cdb939291906117a9565b6020604051808303816000875af1158015610cfa573d6000803e3d6000fd5b505050506040513d601f19601f82011682018060405250810190610d1e919061180c565b5050565b60008060009054906101000a900473ffffffffffffffffffffffffffffffffffffffff169050816000806101000a81548173ffffffffffffffffffffffffffffffffffffffff021916908373ffffffffffffffffffffffffffffffffffffffff1602179055508173ffffffffffffffffffffffffffffffffffffffff168173ffffffffffffffffffffffffffffffffffffffff167f8be0079c531659141344cd1fd0a4f28419497f9722a3daafe3b4186f6b6457e060405160405180910390a35050565b600033905090565b828054610dfa9061160d565b90600052602060002090601f016020900481019282610e1c5760008555610e63565b82601f10610e3557805160ff1916838001178555610e63565b82800160010185558215610e63579182015b82811115610e62578251825591602001919060010190610e47565b5b509050610e709190610e74565b5090565b5b80821115610e8d576000816000905550600101610e75565b5090565b600073ffffffffffffffffffffffffffffffffffffffff82169050919050565b6000819050919050565b6000610ed6610ed1610ecc84610e91565b610eb1565b610e91565b9050919050565b6000610ee882610ebb565b9050919050565b6000610efa82610edd565b9050919050565b610f0a81610eef565b82525050565b6000602082019050610f256000830184610f01565b92915050565b600062ffffff82169050919050565b610f4381610f2b565b82525050565b6000602082019050610f5e6000830184610f3a565b92915050565b6000610f6f82610edd565b9050919050565b610f7f81610f64565b82525050565b6000602082019050610f9a6000830184610f76565b92915050565b6000819050919050565b610fb381610fa0565b82525050565b6000602082019050610fce6000830184610faa565b92915050565b6000610fdf82610e91565b9050919050565b610fef81610fd4565b82525050565b600060208201905061100a6000830184610fe6565b92915050565b6000604051905090565b600080fd5b600080fd5b600080fd5b600080fd5b6000601f19601f8301169050919050565b7f4e487b7100000000000000000000000000000000000000000000000000000000600052604160045260246000fd5b6110778261102e565b810181811067ffffffffffffffff821117156110965761109561103f565b5b80604052505050565b60006110a9611010565b90506110b5828261106e565b919050565b600067ffffffffffffffff8211156110d5576110d461103f565b5b6110de8261102e565b9050602081019050919050565b82818337600083830152505050565b600061110d611108846110ba565b61109f565b90508281526020810184848401111561112957611128611029565b5b6111348482856110eb565b509392505050565b600082601f83011261115157611150611024565b5b81356111618482602086016110fa565b91505092915050565b6000602082840312156111805761117f61101a565b5b600082013567ffffffffffffffff81111561119e5761119d61101f565b5b6111aa8482850161113c565b91505092915050565b60006111be82610e91565b9050919050565b6111ce816111b3565b82525050565b60006020820190506111e960008301846111c5565b92915050565b600081519050919050565b600082825260208201905092915050565b60005b8381101561122957808201518184015260208101905061120e565b83811115611238576000848401525b50505050565b6000611249826111ef565b61125381856111fa565b935061126381856020860161120b565b61126c8161102e565b840191505092915050565b60006020820190508181036000830152611291818461123e565b905092915050565b600080fd5b600080fd5b60008083601f8401126112b9576112b8611024565b5b8235905067ffffffffffffffff8111156112d6576112d5611299565b5b6020830191508360018202830111156112f2576112f161129e565b5b9250929050565b600080602083850312156113105761130f61101a565b5b600083013567ffffffffffffffff81111561132e5761132d61101f565b5b61133a858286016112a3565b92509250509250929050565b61134f816111b3565b811461135a57600080fd5b50565b60008135905061136c81611346565b92915050565b600080604083850312156113895761138861101a565b5b60006113978582860161135d565b925050602083013567ffffffffffffffff8111156113b8576113b761101f565b5b6113c48582860161113c565b9150509250929050565b60008115159050919050565b6113e3816113ce565b82525050565b600081519050919050565b600082825260208201905092915050565b6000611410826113e9565b61141a81856113f4565b935061142a81856020860161120b565b6114338161102e565b840191505092915050565b600060408201905061145360008301856113da565b81810360208301526114658184611405565b90509392505050565b600061147982610edd565b9050919050565b6114898161146e565b82525050565b60006020820190506114a46000830184611480565b92915050565b6114b381610fa0565b81146114be57600080fd5b50565b6000813590506114d0816114aa565b92915050565b6000602082840312156114ec576114eb61101a565b5b60006114fa848285016114c1565b91505092915050565b6000602082840312156115195761151861101a565b5b60006115278482850161135d565b91505092915050565b60008151905061153f816114aa565b92915050565b60006020828403121561155b5761155a61101a565b5b600061156984828501611530565b91505092915050565b7f616c72656164792072656465656d656400000000000000000000000000000000600082015250565b60006115a86010836111fa565b91506115b382611572565b602082019050919050565b600060208201905081810360008301526115d78161159b565b9050919050565b7f4e487b7100000000000000000000000000000000000000000000000000000000600052602260045260246000fd5b6000600282049050600182168061162557607f821691505b60208210811415611639576116386115de565b5b50919050565b600081905092915050565b60008190508160005260206000209050919050565b6000815461166c8161160d565b611676818661163f565b9450600182166000811461169157600181146116a2576116d5565b60ff198316865281860193506116d5565b6116ab8561164a565b60005b838110156116cd578154818901526001820191506020810190506116ae565b838801955050505b50505092915050565b60006116ea828461165f565b915081905092915050565b6000611700826111ef565b61170a818561163f565b935061171a81856020860161120b565b80840191505092915050565b600061173282846116f5565b915081905092915050565b7f6b657920646f6573206e6f74206d617463680000000000000000000000000000600082015250565b60006117736012836111fa565b915061177e8261173d565b602082019050919050565b600060208201905081810360008301526117a281611766565b9050919050565b60006060820190506117be60008301866111c5565b6117cb60208301856111c5565b6117d86040830184610faa565b949350505050565b6117e9816113ce565b81146117f457600080fd5b50565b600081519050611806816117e0565b92915050565b6000602082840312156118225761182161101a565b5b6000611830848285016117f7565b91505092915050565b7f4e487b7100000000000000000000000000000000000000000000000000000000600052601160045260246000fd5b600061187382610fa0565b915061187e83610fa0565b9250817fffffffffffffffffffffffffffffffffffffffffffffffffffffffffffffffff04831182151516156118b7576118b6611839565b5b828202905092915050565b60006118cd82610fa0565b91506118d883610fa0565b9250828210156118eb576118ea611839565b5b828203905092915050565b7f726564656d7074696f6e206b65792063616e6e6f7420626520656d7074790000600082015250565b600061192c601e836111fa565b9150611937826118f6565b602082019050919050565b6000602082019050818103600083015261195b8161191f565b9050919050565b600060408201905061197760008301856111c5565b6119846020830184610faa565b9392505050565b7f4f776e61626c653a206e6577206f776e657220697320746865207a65726f206160008201527f6464726573730000000000000000000000000000000000000000000000000000602082015250565b60006119e76026836111fa565b91506119f28261198b565b604082019050919050565b60006020820190508181036000830152611a16816119da565b9050919050565b7f4f776e61626c653a2063616c6c6572206973206e6f7420746865206f776e6572600082015250565b6000611a536020836111fa565b9150611a5e82611a1d565b602082019050919050565b60006020820190508181036000830152611a8281611a46565b9050919050565b7f616c72656164792072656465656d656420736f2063616e6e6f7420657870697260008201527f6500000000000000000000000000000000000000000000000000000000000000602082015250565b6000611ae56021836111fa565b9150611af082611a89565b604082019050919050565b60006020820190508181036000830152611b1481611ad8565b905091905056fea26469706673582212209d09c5152f4513a451a7f21afa092baf1106edc97b51eb5eb9819fcde79646c064736f6c634300080a0033",
  "linkReferences": {},
  "deployedLinkReferences": {}
}